{
  "contractName": "DigitalPicture",
  "abi": [
    {
      "inputs": [],
      "stateMutability": "nonpayable",
      "type": "constructor"
    },
    {
      "anonymous": false,
      "inputs": [
        {
          "indexed": true,
          "internalType": "address",
          "name": "owner",
          "type": "address"
        },
        {
          "indexed": true,
          "internalType": "address",
          "name": "approved",
          "type": "address"
        },
        {
          "indexed": true,
          "internalType": "uint256",
          "name": "tokenId",
          "type": "uint256"
        }
      ],
      "name": "Approval",
      "type": "event"
    },
    {
      "anonymous": false,
      "inputs": [
        {
          "indexed": true,
          "internalType": "address",
          "name": "owner",
          "type": "address"
        },
        {
          "indexed": true,
          "internalType": "address",
          "name": "operator",
          "type": "address"
        },
        {
          "indexed": false,
          "internalType": "bool",
          "name": "approved",
          "type": "bool"
        }
      ],
      "name": "ApprovalForAll",
      "type": "event"
    },
    {
      "anonymous": false,
      "inputs": [
        {
          "indexed": true,
          "internalType": "address",
          "name": "from",
          "type": "address"
        },
        {
          "indexed": true,
          "internalType": "address",
          "name": "to",
          "type": "address"
        },
        {
          "indexed": true,
          "internalType": "uint256",
          "name": "tokenId",
          "type": "uint256"
        }
      ],
      "name": "Transfer",
      "type": "event"
    },
    {
      "inputs": [
        {
          "internalType": "address",
          "name": "to",
          "type": "address"
        },
        {
          "internalType": "uint256",
          "name": "tokenId",
          "type": "uint256"
        }
      ],
      "name": "approve",
      "outputs": [],
      "stateMutability": "nonpayable",
      "type": "function"
    },
    {
      "inputs": [
        {
          "internalType": "address",
          "name": "owner",
          "type": "address"
        }
      ],
      "name": "balanceOf",
      "outputs": [
        {
          "internalType": "uint256",
          "name": "",
          "type": "uint256"
        }
      ],
      "stateMutability": "view",
      "type": "function"
    },
    {
      "inputs": [
        {
          "internalType": "uint256",
          "name": "tokenId",
          "type": "uint256"
        }
      ],
      "name": "getApproved",
      "outputs": [
        {
          "internalType": "address",
          "name": "",
          "type": "address"
        }
      ],
      "stateMutability": "view",
      "type": "function"
    },
    {
      "inputs": [
        {
          "internalType": "address",
          "name": "owner",
          "type": "address"
        },
        {
          "internalType": "address",
          "name": "operator",
          "type": "address"
        }
      ],
      "name": "isApprovedForAll",
      "outputs": [
        {
          "internalType": "bool",
          "name": "",
          "type": "bool"
        }
      ],
      "stateMutability": "view",
      "type": "function"
    },
    {
      "inputs": [],
      "name": "name",
      "outputs": [
        {
          "internalType": "string",
          "name": "",
          "type": "string"
        }
      ],
      "stateMutability": "view",
      "type": "function"
    },
    {
      "inputs": [
        {
          "internalType": "uint256",
          "name": "tokenId",
          "type": "uint256"
        }
      ],
      "name": "ownerOf",
      "outputs": [
        {
          "internalType": "address",
          "name": "",
          "type": "address"
        }
      ],
      "stateMutability": "view",
      "type": "function"
    },
    {
      "inputs": [
        {
          "internalType": "address",
          "name": "from",
          "type": "address"
        },
        {
          "internalType": "address",
          "name": "to",
          "type": "address"
        },
        {
          "internalType": "uint256",
          "name": "tokenId",
          "type": "uint256"
        }
      ],
      "name": "safeTransferFrom",
      "outputs": [],
      "stateMutability": "nonpayable",
      "type": "function"
    },
    {
      "inputs": [
        {
          "internalType": "address",
          "name": "from",
          "type": "address"
        },
        {
          "internalType": "address",
          "name": "to",
          "type": "address"
        },
        {
          "internalType": "uint256",
          "name": "tokenId",
          "type": "uint256"
        },
        {
          "internalType": "bytes",
          "name": "data",
          "type": "bytes"
        }
      ],
      "name": "safeTransferFrom",
      "outputs": [],
      "stateMutability": "nonpayable",
      "type": "function"
    },
    {
      "inputs": [
        {
          "internalType": "address",
          "name": "operator",
          "type": "address"
        },
        {
          "internalType": "bool",
          "name": "approved",
          "type": "bool"
        }
      ],
      "name": "setApprovalForAll",
      "outputs": [],
      "stateMutability": "nonpayable",
      "type": "function"
    },
    {
      "inputs": [
        {
          "internalType": "bytes4",
          "name": "interfaceId",
          "type": "bytes4"
        }
      ],
      "name": "supportsInterface",
      "outputs": [
        {
          "internalType": "bool",
          "name": "",
          "type": "bool"
        }
      ],
      "stateMutability": "view",
      "type": "function"
    },
    {
      "inputs": [],
      "name": "symbol",
      "outputs": [
        {
          "internalType": "string",
          "name": "",
          "type": "string"
        }
      ],
      "stateMutability": "view",
      "type": "function"
    },
    {
      "inputs": [
        {
          "internalType": "uint256",
          "name": "tokenId",
          "type": "uint256"
        }
      ],
      "name": "tokenURI",
      "outputs": [
        {
          "internalType": "string",
          "name": "",
          "type": "string"
        }
      ],
      "stateMutability": "view",
      "type": "function"
    },
    {
      "inputs": [
        {
          "internalType": "address",
          "name": "from",
          "type": "address"
        },
        {
          "internalType": "address",
          "name": "to",
          "type": "address"
        },
        {
          "internalType": "uint256",
          "name": "tokenId",
          "type": "uint256"
        }
      ],
      "name": "transferFrom",
      "outputs": [],
      "stateMutability": "nonpayable",
      "type": "function"
    },
    {
      "inputs": [
        {
          "internalType": "address",
          "name": "creator",
          "type": "address"
        },
        {
          "internalType": "string",
          "name": "tokenURI",
          "type": "string"
        }
      ],
      "name": "publishItem",
      "outputs": [
        {
          "internalType": "uint256",
          "name": "",
          "type": "uint256"
        }
      ],
      "stateMutability": "nonpayable",
      "type": "function"
    }
  ],
  "bytecode": "0x60806040523480156200001157600080fd5b506040518060400160405280600c81526020017f44696769745069637475726500000000000000000000000000000000000000008152506040518060400160405280600381526020017f4e4450000000000000000000000000000000000000000000000000000000000081525081600090816200008f919062000324565b508060019081620000a1919062000324565b5050506200040b565b600081519050919050565b7f4e487b7100000000000000000000000000000000000000000000000000000000600052604160045260246000fd5b7f4e487b7100000000000000000000000000000000000000000000000000000000600052602260045260246000fd5b600060028204905060018216806200012c57607f821691505b602082108103620001425762000141620000e4565b5b50919050565b60008190508160005260206000209050919050565b60006020601f8301049050919050565b600082821b905092915050565b600060088302620001ac7fffffffffffffffffffffffffffffffffffffffffffffffffffffffffffffffff826200016d565b620001b886836200016d565b95508019841693508086168417925050509392505050565b6000819050919050565b6000819050919050565b600062000205620001ff620001f984620001d0565b620001da565b620001d0565b9050919050565b6000819050919050565b6200022183620001e4565b6200023962000230826200020c565b8484546200017a565b825550505050565b600090565b6200025062000241565b6200025d81848462000216565b505050565b5b8181101562000285576200027960008262000246565b60018101905062000263565b5050565b601f821115620002d4576200029e8162000148565b620002a9846200015d565b81016020851015620002b9578190505b620002d1620002c8856200015d565b83018262000262565b50505b505050565b600082821c905092915050565b6000620002f960001984600802620002d9565b1980831691505092915050565b6000620003148383620002e6565b9150826002028217905092915050565b6200032f82620000aa565b67ffffffffffffffff8111156200034b576200034a620000b5565b5b62000357825462000113565b6200036482828562000289565b600060209050601f8311600181146200039c576000841562000387578287015190505b62000393858262000306565b86555062000403565b601f198416620003ac8662000148565b60005b82811015620003d657848901518255600182019150602085019450602081019050620003af565b86831015620003f65784890151620003f2601f891682620002e6565b8355505b6001600288020188555050505b505050505050565b612a62806200041b6000396000f3fe608060405234801561001057600080fd5b50600436106100ea5760003560e01c806370a082311161008c578063b88d4fde11610066578063b88d4fde1461025b578063c87b56dd14610277578063e985e9c5146102a7578063ef15f842146102d7576100ea565b806370a08231146101f157806395d89b4114610221578063a22cb4651461023f576100ea565b8063095ea7b3116100c8578063095ea7b31461016d57806323b872dd1461018957806342842e0e146101a55780636352211e146101c1576100ea565b806301ffc9a7146100ef57806306fdde031461011f578063081812fc1461013d575b600080fd5b610109600480360381019061010491906117b6565b610307565b60405161011691906117fe565b60405180910390f35b6101276103e9565b60405161013491906118b2565b60405180910390f35b6101576004803603810190610152919061190a565b61047b565b6040516101649190611978565b60405180910390f35b610187600480360381019061018291906119bf565b6104c1565b005b6101a3600480360381019061019e91906119ff565b6105d8565b005b6101bf60048036038101906101ba91906119ff565b610638565b005b6101db60048036038101906101d6919061190a565b610658565b6040516101e89190611978565b60405180910390f35b61020b60048036038101906102069190611a52565b610709565b6040516102189190611a8e565b60405180910390f35b6102296107c0565b60405161023691906118b2565b60405180910390f35b61025960048036038101906102549190611ad5565b610852565b005b61027560048036038101906102709190611c4a565b610868565b005b610291600480360381019061028c919061190a565b6108ca565b60405161029e91906118b2565b60405180910390f35b6102c160048036038101906102bc9190611ccd565b6109dc565b6040516102ce91906117fe565b60405180910390f35b6102f160048036038101906102ec9190611dae565b610a70565b6040516102fe9190611a8e565b60405180910390f35b60007f80ac58cd000000000000000000000000000000000000000000000000000000007bffffffffffffffffffffffffffffffffffffffffffffffffffffffff1916827bffffffffffffffffffffffffffffffffffffffffffffffffffffffff191614806103d257507f5b5e139f000000000000000000000000000000000000000000000000000000007bffffffffffffffffffffffffffffffffffffffffffffffffffffffff1916827bffffffffffffffffffffffffffffffffffffffffffffffffffffffff1916145b806103e257506103e182610aa8565b5b9050919050565b6060600080546103f890611e39565b80601f016020809104026020016040519081016040528092919081815260200182805461042490611e39565b80156104715780601f1061044657610100808354040283529160200191610471565b820191906000526020600020905b81548152906001019060200180831161045457829003601f168201915b5050505050905090565b600061048682610b12565b6004600083815260200190815260200160002060009054906101000a900473ffffffffffffffffffffffffffffffffffffffff169050919050565b60006104cc82610658565b90508073ffffffffffffffffffffffffffffffffffffffff168373ffffffffffffffffffffffffffffffffffffffff160361053c576040517f08c379a000000000000000000000000000000000000000000000000000000000815260040161053390611edc565b60405180910390fd5b8073ffffffffffffffffffffffffffffffffffffffff1661055b610b5d565b73ffffffffffffffffffffffffffffffffffffffff16148061058a575061058981610584610b5d565b6109dc565b5b6105c9576040517f08c379a00000000000000000000000000000000000000000000000000000000081526004016105c090611f6e565b60405180910390fd5b6105d38383610b65565b505050565b6105e96105e3610b5d565b82610c1e565b610628576040517f08c379a000000000000000000000000000000000000000000000000000000000815260040161061f90612000565b60405180910390fd5b610633838383610cb3565b505050565b61065383838360405180602001604052806000815250610868565b505050565b6000806002600084815260200190815260200160002060009054906101000a900473ffffffffffffffffffffffffffffffffffffffff169050600073ffffffffffffffffffffffffffffffffffffffff168173ffffffffffffffffffffffffffffffffffffffff1603610700576040517f08c379a00000000000000000000000000000000000000000000000000000000081526004016106f79061206c565b60405180910390fd5b80915050919050565b60008073ffffffffffffffffffffffffffffffffffffffff168273ffffffffffffffffffffffffffffffffffffffff1603610779576040517f08c379a0000000000000000000000000000000000000000000000000000000008152600401610770906120fe565b60405180910390fd5b600360008373ffffffffffffffffffffffffffffffffffffffff1673ffffffffffffffffffffffffffffffffffffffff168152602001908152602001600020549050919050565b6060600180546107cf90611e39565b80601f01602080910402602001604051908101604052809291908181526020018280546107fb90611e39565b80156108485780601f1061081d57610100808354040283529160200191610848565b820191906000526020600020905b81548152906001019060200180831161082b57829003601f168201915b5050505050905090565b61086461085d610b5d565b8383610f19565b5050565b610879610873610b5d565b83610c1e565b6108b8576040517f08c379a00000000000000000000000000000000000000000000000000000000081526004016108af90612000565b60405180910390fd5b6108c484848484611085565b50505050565b60606108d582610b12565b60006006600084815260200190815260200160002080546108f590611e39565b80601f016020809104026020016040519081016040528092919081815260200182805461092190611e39565b801561096e5780601f106109435761010080835404028352916020019161096e565b820191906000526020600020905b81548152906001019060200180831161095157829003601f168201915b50505050509050600061097f6110e1565b905060008151036109945781925050506109d7565b6000825111156109c95780826040516020016109b192919061215a565b604051602081830303815290604052925050506109d7565b6109d2846110f8565b925050505b919050565b6000600560008473ffffffffffffffffffffffffffffffffffffffff1673ffffffffffffffffffffffffffffffffffffffff16815260200190815260200160002060008373ffffffffffffffffffffffffffffffffffffffff1673ffffffffffffffffffffffffffffffffffffffff16815260200190815260200160002060009054906101000a900460ff16905092915050565b6000610a7c6007611160565b6000610a886007611176565b9050610a948482611184565b610a9e818461135d565b8091505092915050565b60007f01ffc9a7000000000000000000000000000000000000000000000000000000007bffffffffffffffffffffffffffffffffffffffffffffffffffffffff1916827bffffffffffffffffffffffffffffffffffffffffffffffffffffffff1916149050919050565b610b1b816113ca565b610b5a576040517f08c379a0000000000000000000000000000000000000000000000000000000008152600401610b519061206c565b60405180910390fd5b50565b600033905090565b816004600083815260200190815260200160002060006101000a81548173ffffffffffffffffffffffffffffffffffffffff021916908373ffffffffffffffffffffffffffffffffffffffff160217905550808273ffffffffffffffffffffffffffffffffffffffff16610bd883610658565b73ffffffffffffffffffffffffffffffffffffffff167f8c5be1e5ebec7d5bd14f71427d1e84f3dd0314c0f7b2291e5b200ac8c7c3b92560405160405180910390a45050565b600080610c2a83610658565b90508073ffffffffffffffffffffffffffffffffffffffff168473ffffffffffffffffffffffffffffffffffffffff161480610c6c5750610c6b81856109dc565b5b80610caa57508373ffffffffffffffffffffffffffffffffffffffff16610c928461047b565b73ffffffffffffffffffffffffffffffffffffffff16145b91505092915050565b8273ffffffffffffffffffffffffffffffffffffffff16610cd382610658565b73ffffffffffffffffffffffffffffffffffffffff1614610d29576040517f08c379a0000000000000000000000000000000000000000000000000000000008152600401610d20906121f0565b60405180910390fd5b600073ffffffffffffffffffffffffffffffffffffffff168273ffffffffffffffffffffffffffffffffffffffff1603610d98576040517f08c379a0000000000000000000000000000000000000000000000000000000008152600401610d8f90612282565b60405180910390fd5b610da3838383611436565b610dae600082610b65565b6001600360008573ffffffffffffffffffffffffffffffffffffffff1673ffffffffffffffffffffffffffffffffffffffff1681526020019081526020016000206000828254610dfe91906122d1565b925050819055506001600360008473ffffffffffffffffffffffffffffffffffffffff1673ffffffffffffffffffffffffffffffffffffffff1681526020019081526020016000206000828254610e559190612305565b92505081905550816002600083815260200190815260200160002060006101000a81548173ffffffffffffffffffffffffffffffffffffffff021916908373ffffffffffffffffffffffffffffffffffffffff160217905550808273ffffffffffffffffffffffffffffffffffffffff168473ffffffffffffffffffffffffffffffffffffffff167fddf252ad1be2c89b69c2b068fc378daa952ba7f163c4a11628f55a4df523b3ef60405160405180910390a4610f1483838361143b565b505050565b8173ffffffffffffffffffffffffffffffffffffffff168373ffffffffffffffffffffffffffffffffffffffff1603610f87576040517f08c379a0000000000000000000000000000000000000000000000000000000008152600401610f7e906123a7565b60405180910390fd5b80600560008573ffffffffffffffffffffffffffffffffffffffff1673ffffffffffffffffffffffffffffffffffffffff16815260200190815260200160002060008473ffffffffffffffffffffffffffffffffffffffff1673ffffffffffffffffffffffffffffffffffffffff16815260200190815260200160002060006101000a81548160ff0219169083151502179055508173ffffffffffffffffffffffffffffffffffffffff168373ffffffffffffffffffffffffffffffffffffffff167f17307eab39ab6107e8899845ad3d59bd9653f200f220920489ca2b5937696c318360405161107891906117fe565b60405180910390a3505050565b611090848484610cb3565b61109c84848484611440565b6110db576040517f08c379a00000000000000000000000000000000000000000000000000000000081526004016110d290612439565b60405180910390fd5b50505050565b606060405180602001604052806000815250905090565b606061110382610b12565b600061110d6110e1565b9050600081511161112d5760405180602001604052806000815250611158565b80611137846115c7565b60405160200161114892919061215a565b6040516020818303038152906040525b915050919050565b6001816000016000828254019250508190555050565b600081600001549050919050565b600073ffffffffffffffffffffffffffffffffffffffff168273ffffffffffffffffffffffffffffffffffffffff16036111f3576040517f08c379a00000000000000000000000000000000000000000000000000000000081526004016111ea906124a5565b60405180910390fd5b6111fc816113ca565b1561123c576040517f08c379a000000000000000000000000000000000000000000000000000000000815260040161123390612511565b60405180910390fd5b61124860008383611436565b6001600360008473ffffffffffffffffffffffffffffffffffffffff1673ffffffffffffffffffffffffffffffffffffffff16815260200190815260200160002060008282546112989190612305565b92505081905550816002600083815260200190815260200160002060006101000a81548173ffffffffffffffffffffffffffffffffffffffff021916908373ffffffffffffffffffffffffffffffffffffffff160217905550808273ffffffffffffffffffffffffffffffffffffffff16600073ffffffffffffffffffffffffffffffffffffffff167fddf252ad1be2c89b69c2b068fc378daa952ba7f163c4a11628f55a4df523b3ef60405160405180910390a46113596000838361143b565b5050565b611366826113ca565b6113a5576040517f08c379a000000000000000000000000000000000000000000000000000000000815260040161139c906125a3565b60405180910390fd5b806006600084815260200190815260200160002090816113c5919061276f565b505050565b60008073ffffffffffffffffffffffffffffffffffffffff166002600084815260200190815260200160002060009054906101000a900473ffffffffffffffffffffffffffffffffffffffff1673ffffffffffffffffffffffffffffffffffffffff1614159050919050565b505050565b505050565b60006114618473ffffffffffffffffffffffffffffffffffffffff16611727565b156115ba578373ffffffffffffffffffffffffffffffffffffffff1663150b7a0261148a610b5d565b8786866040518563ffffffff1660e01b81526004016114ac9493929190612896565b6020604051808303816000875af19250505080156114e857506040513d601f19601f820116820180604052508101906114e591906128f7565b60015b61156a573d8060008114611518576040519150601f19603f3d011682016040523d82523d6000602084013e61151d565b606091505b506000815103611562576040517f08c379a000000000000000000000000000000000000000000000000000000000815260040161155990612439565b60405180910390fd5b805181602001fd5b63150b7a0260e01b7bffffffffffffffffffffffffffffffffffffffffffffffffffffffff1916817bffffffffffffffffffffffffffffffffffffffffffffffffffffffff1916149150506115bf565b600190505b949350505050565b60606000820361160e576040518060400160405280600181526020017f30000000000000000000000000000000000000000000000000000000000000008152509050611722565b600082905060005b6000821461164057808061162990612924565b915050600a82611639919061299b565b9150611616565b60008167ffffffffffffffff81111561165c5761165b611b1f565b5b6040519080825280601f01601f19166020018201604052801561168e5781602001600182028036833780820191505090505b5090505b6000851461171b576001826116a791906122d1565b9150600a856116b691906129cc565b60306116c29190612305565b60f81b8183815181106116d8576116d76129fd565b5b60200101907effffffffffffffffffffffffffffffffffffffffffffffffffffffffffffff1916908160001a905350600a85611714919061299b565b9450611692565b8093505050505b919050565b6000808273ffffffffffffffffffffffffffffffffffffffff163b119050919050565b6000604051905090565b600080fd5b600080fd5b60007fffffffff0000000000000000000000000000000000000000000000000000000082169050919050565b6117938161175e565b811461179e57600080fd5b50565b6000813590506117b08161178a565b92915050565b6000602082840312156117cc576117cb611754565b5b60006117da848285016117a1565b91505092915050565b60008115159050919050565b6117f8816117e3565b82525050565b600060208201905061181360008301846117ef565b92915050565b600081519050919050565b600082825260208201905092915050565b60005b83811015611853578082015181840152602081019050611838565b83811115611862576000848401525b50505050565b6000601f19601f8301169050919050565b600061188482611819565b61188e8185611824565b935061189e818560208601611835565b6118a781611868565b840191505092915050565b600060208201905081810360008301526118cc8184611879565b905092915050565b6000819050919050565b6118e7816118d4565b81146118f257600080fd5b50565b600081359050611904816118de565b92915050565b6000602082840312156119205761191f611754565b5b600061192e848285016118f5565b91505092915050565b600073ffffffffffffffffffffffffffffffffffffffff82169050919050565b600061196282611937565b9050919050565b61197281611957565b82525050565b600060208201905061198d6000830184611969565b92915050565b61199c81611957565b81146119a757600080fd5b50565b6000813590506119b981611993565b92915050565b600080604083850312156119d6576119d5611754565b5b60006119e4858286016119aa565b92505060206119f5858286016118f5565b9150509250929050565b600080600060608486031215611a1857611a17611754565b5b6000611a26868287016119aa565b9350506020611a37868287016119aa565b9250506040611a48868287016118f5565b9150509250925092565b600060208284031215611a6857611a67611754565b5b6000611a76848285016119aa565b91505092915050565b611a88816118d4565b82525050565b6000602082019050611aa36000830184611a7f565b92915050565b611ab2816117e3565b8114611abd57600080fd5b50565b600081359050611acf81611aa9565b92915050565b60008060408385031215611aec57611aeb611754565b5b6000611afa858286016119aa565b9250506020611b0b85828601611ac0565b9150509250929050565b600080fd5b600080fd5b7f4e487b7100000000000000000000000000000000000000000000000000000000600052604160045260246000fd5b611b5782611868565b810181811067ffffffffffffffff82111715611b7657611b75611b1f565b5b80604052505050565b6000611b8961174a565b9050611b958282611b4e565b919050565b600067ffffffffffffffff821115611bb557611bb4611b1f565b5b611bbe82611868565b9050602081019050919050565b82818337600083830152505050565b6000611bed611be884611b9a565b611b7f565b905082815260208101848484011115611c0957611c08611b1a565b5b611c14848285611bcb565b509392505050565b600082601f830112611c3157611c30611b15565b5b8135611c41848260208601611bda565b91505092915050565b60008060008060808587031215611c6457611c63611754565b5b6000611c72878288016119aa565b9450506020611c83878288016119aa565b9350506040611c94878288016118f5565b925050606085013567ffffffffffffffff811115611cb557611cb4611759565b5b611cc187828801611c1c565b91505092959194509250565b60008060408385031215611ce457611ce3611754565b5b6000611cf2858286016119aa565b9250506020611d03858286016119aa565b9150509250929050565b600067ffffffffffffffff821115611d2857611d27611b1f565b5b611d3182611868565b9050602081019050919050565b6000611d51611d4c84611d0d565b611b7f565b905082815260208101848484011115611d6d57611d6c611b1a565b5b611d78848285611bcb565b509392505050565b600082601f830112611d9557611d94611b15565b5b8135611da5848260208601611d3e565b91505092915050565b60008060408385031215611dc557611dc4611754565b5b6000611dd3858286016119aa565b925050602083013567ffffffffffffffff811115611df457611df3611759565b5b611e0085828601611d80565b9150509250929050565b7f4e487b7100000000000000000000000000000000000000000000000000000000600052602260045260246000fd5b60006002820490506001821680611e5157607f821691505b602082108103611e6457611e63611e0a565b5b50919050565b7f4552433732313a20617070726f76616c20746f2063757272656e74206f776e6560008201527f7200000000000000000000000000000000000000000000000000000000000000602082015250565b6000611ec6602183611824565b9150611ed182611e6a565b604082019050919050565b60006020820190508181036000830152611ef581611eb9565b9050919050565b7f4552433732313a20617070726f76652063616c6c6572206973206e6f7420746f60008201527f6b656e206f776e6572206e6f7220617070726f76656420666f7220616c6c0000602082015250565b6000611f58603e83611824565b9150611f6382611efc565b604082019050919050565b60006020820190508181036000830152611f8781611f4b565b9050919050565b7f4552433732313a2063616c6c6572206973206e6f7420746f6b656e206f776e6560008201527f72206e6f7220617070726f766564000000000000000000000000000000000000602082015250565b6000611fea602e83611824565b9150611ff582611f8e565b604082019050919050565b6000602082019050818103600083015261201981611fdd565b9050919050565b7f4552433732313a20696e76616c696420746f6b656e2049440000000000000000600082015250565b6000612056601883611824565b915061206182612020565b602082019050919050565b6000602082019050818103600083015261208581612049565b9050919050565b7f4552433732313a2061646472657373207a65726f206973206e6f74206120766160008201527f6c6964206f776e65720000000000000000000000000000000000000000000000602082015250565b60006120e8602983611824565b91506120f38261208c565b604082019050919050565b60006020820190508181036000830152612117816120db565b9050919050565b600081905092915050565b600061213482611819565b61213e818561211e565b935061214e818560208601611835565b80840191505092915050565b60006121668285612129565b91506121728284612129565b91508190509392505050565b7f4552433732313a207472616e736665722066726f6d20696e636f72726563742060008201527f6f776e6572000000000000000000000000000000000000000000000000000000602082015250565b60006121da602583611824565b91506121e58261217e565b604082019050919050565b60006020820190508181036000830152612209816121cd565b9050919050565b7f4552433732313a207472616e7366657220746f20746865207a65726f2061646460008201527f7265737300000000000000000000000000000000000000000000000000000000602082015250565b600061226c602483611824565b915061227782612210565b604082019050919050565b6000602082019050818103600083015261229b8161225f565b9050919050565b7f4e487b7100000000000000000000000000000000000000000000000000000000600052601160045260246000fd5b60006122dc826118d4565b91506122e7836118d4565b9250828210156122fa576122f96122a2565b5b828203905092915050565b6000612310826118d4565b915061231b836118d4565b9250827fffffffffffffffffffffffffffffffffffffffffffffffffffffffffffffffff038211156123505761234f6122a2565b5b828201905092915050565b7f4552433732313a20617070726f766520746f2063616c6c657200000000000000600082015250565b6000612391601983611824565b915061239c8261235b565b602082019050919050565b600060208201905081810360008301526123c081612384565b9050919050565b7f4552433732313a207472616e7366657220746f206e6f6e20455243373231526560008201527f63656976657220696d706c656d656e7465720000000000000000000000000000602082015250565b6000612423603283611824565b915061242e826123c7565b604082019050919050565b6000602082019050818103600083015261245281612416565b9050919050565b7f4552433732313a206d696e7420746f20746865207a65726f2061646472657373600082015250565b600061248f602083611824565b915061249a82612459565b602082019050919050565b600060208201905081810360008301526124be81612482565b9050919050565b7f4552433732313a20746f6b656e20616c7265616479206d696e74656400000000600082015250565b60006124fb601c83611824565b9150612506826124c5565b602082019050919050565b6000602082019050818103600083015261252a816124ee565b9050919050565b7f45524337323155524953746f726167653a2055524920736574206f66206e6f6e60008201527f6578697374656e7420746f6b656e000000000000000000000000000000000000602082015250565b600061258d602e83611824565b915061259882612531565b604082019050919050565b600060208201905081810360008301526125bc81612580565b9050919050565b60008190508160005260206000209050919050565b60006020601f8301049050919050565b600082821b905092915050565b6000600883026126257fffffffffffffffffffffffffffffffffffffffffffffffffffffffffffffffff826125e8565b61262f86836125e8565b95508019841693508086168417925050509392505050565b6000819050919050565b600061266c612667612662846118d4565b612647565b6118d4565b9050919050565b6000819050919050565b61268683612651565b61269a61269282612673565b8484546125f5565b825550505050565b600090565b6126af6126a2565b6126ba81848461267d565b505050565b5b818110156126de576126d36000826126a7565b6001810190506126c0565b5050565b601f821115612723576126f4816125c3565b6126fd846125d8565b8101602085101561270c578190505b612720612718856125d8565b8301826126bf565b50505b505050565b600082821c905092915050565b600061274660001984600802612728565b1980831691505092915050565b600061275f8383612735565b9150826002028217905092915050565b61277882611819565b67ffffffffffffffff81111561279157612790611b1f565b5b61279b8254611e39565b6127a68282856126e2565b600060209050601f8311600181146127d957600084156127c7578287015190505b6127d18582612753565b865550612839565b601f1984166127e7866125c3565b60005b8281101561280f578489015182556001820191506020850194506020810190506127ea565b8683101561282c5784890151612828601f891682612735565b8355505b6001600288020188555050505b505050505050565b600081519050919050565b600082825260208201905092915050565b600061286882612841565b612872818561284c565b9350612882818560208601611835565b61288b81611868565b840191505092915050565b60006080820190506128ab6000830187611969565b6128b86020830186611969565b6128c56040830185611a7f565b81810360608301526128d7818461285d565b905095945050505050565b6000815190506128f18161178a565b92915050565b60006020828403121561290d5761290c611754565b5b600061291b848285016128e2565b91505092915050565b600061292f826118d4565b91507fffffffffffffffffffffffffffffffffffffffffffffffffffffffffffffffff8203612961576129606122a2565b5b600182019050919050565b7f4e487b7100000000000000000000000000000000000000000000000000000000600052601260045260246000fd5b60006129a6826118d4565b91506129b1836118d4565b9250826129c1576129c061296c565b5b828204905092915050565b60006129d7826118d4565b91506129e2836118d4565b9250826129f2576129f161296c565b5b828206905092915050565b7f4e487b7100000000000000000000000000000000000000000000000000000000600052603260045260246000fdfea2646970667358221220c658d42d8167389da754a7f6874ec4dddc7dd521ff2a8881e0e3b79545d4729f64736f6c634300080f0033",
  "immutableReferences": {},
  "source": "pragma solidity >=0.4.22 <0.9.0; //  \n\nimport \"@openzeppelin/contracts/token/ERC721/extensions/ERC721URIStorage.sol\";//  \n\nimport \"@openzeppelin/contracts/utils/Counters.sol\";//nft     \n\ncontract DigitalPicture is ERC721URIStorage{\n    using Counters for Counters.Counter;\n    Counters.Counter private _tokenIds;\n    //  DigitalPicture    \n    constructor() ERC721(\"DigitPicture\",\"NDP\"){}\n    //3.js    \n    function publishItem(address creator , string memory tokenURI) public returns (uint256){\n        _tokenIds.increment();\n        uint256 newTokenId= _tokenIds.current(); // \n    //uint 256   \n        _mint(creator, newTokenId);\n        //    nft  \n        _setTokenURI(newTokenId, tokenURI);\n        //ID      \n        return newTokenId;\n    }\n    \n}",
  "sourcePath": "/home/jg//NFT/contracts/DigitalPicture.sol",
  "compiler": {
    "name": "solc",
    "version": "0.8.15+commit.e14f2714.Emscripten.clang"
  },
  "schemaVersion": "3.4.8",
  "updatedAt": "2022-07-19T12:40:55.990Z",
  "devdoc": {
    "kind": "dev",
    "methods": {
      "approve(address,uint256)": {
        "details": "See {IERC721-approve}."
      },
      "balanceOf(address)": {
        "details": "See {IERC721-balanceOf}."
      },
      "getApproved(uint256)": {
        "details": "See {IERC721-getApproved}."
      },
      "isApprovedForAll(address,address)": {
        "details": "See {IERC721-isApprovedForAll}."
      },
      "name()": {
        "details": "See {IERC721Metadata-name}."
      },
      "ownerOf(uint256)": {
        "details": "See {IERC721-ownerOf}."
      },
      "safeTransferFrom(address,address,uint256)": {
        "details": "See {IERC721-safeTransferFrom}."
      },
      "safeTransferFrom(address,address,uint256,bytes)": {
        "details": "See {IERC721-safeTransferFrom}."
      },
      "setApprovalForAll(address,bool)": {
        "details": "See {IERC721-setApprovalForAll}."
      },
      "supportsInterface(bytes4)": {
        "details": "See {IERC165-supportsInterface}."
      },
      "symbol()": {
        "details": "See {IERC721Metadata-symbol}."
      },
      "tokenURI(uint256)": {
        "details": "See {IERC721Metadata-tokenURI}."
      },
      "transferFrom(address,address,uint256)": {
        "details": "See {IERC721-transferFrom}."
      }
    },
    "version": 1
  },
  "userdoc": {
    "kind": "user",
    "methods": {},
    "version": 1
  }
}